{
  "address": "0x8025A6A123f55feb7dD24e3e27b38D02b4F59971",
  "abi": [
    {
      "inputs": [
        {
          "internalType": "address",
          "name": "_oracleAddress",
          "type": "address"
        }
      ],
      "stateMutability": "nonpayable",
      "type": "constructor"
    },
    {
      "inputs": [],
      "name": "AlreadyCompleted",
      "type": "error"
    },
    {
      "inputs": [],
      "name": "InvalidAmount",
      "type": "error"
    },
    {
      "inputs": [],
      "name": "InvalidLength",
      "type": "error"
    },
    {
      "inputs": [
        {
          "internalType": "uint256",
          "name": "projectId",
          "type": "uint256"
        },
        {
          "internalType": "uint256",
          "name": "milestoneIndex",
          "type": "uint256"
        }
      ],
      "name": "InvalidMilestone",
      "type": "error"
    },
    {
      "inputs": [
        {
          "internalType": "address",
          "name": "contractor",
          "type": "address"
        }
      ],
      "name": "OnlyContractor",
      "type": "error"
    },
    {
      "inputs": [],
      "name": "TransferFailed",
      "type": "error"
    },
    {
      "inputs": [
        {
          "internalType": "address",
          "name": "caller",
          "type": "address"
        }
      ],
      "name": "Unauthorized",
      "type": "error"
    },
    {
      "anonymous": false,
      "inputs": [
        {
          "indexed": true,
          "internalType": "uint256",
          "name": "projectId",
          "type": "uint256"
        },
        {
          "indexed": true,
          "internalType": "uint256",
          "name": "milestoneIndex",
          "type": "uint256"
        },
        {
          "indexed": false,
          "internalType": "string",
          "name": "ipfsHash",
          "type": "string"
        }
      ],
      "name": "EvidenceSubmitted",
      "type": "event"
    },
    {
      "anonymous": false,
      "inputs": [
        {
          "indexed": true,
          "internalType": "uint256",
          "name": "projectId",
          "type": "uint256"
        },
        {
          "indexed": true,
          "internalType": "uint256",
          "name": "milestoneIndex",
          "type": "uint256"
        },
        {
          "indexed": false,
          "internalType": "uint256",
          "name": "amount",
          "type": "uint256"
        }
      ],
      "name": "MilestoneReleased",
      "type": "event"
    },
    {
      "anonymous": false,
      "inputs": [
        {
          "indexed": true,
          "internalType": "uint256",
          "name": "projectId",
          "type": "uint256"
        },
        {
          "indexed": true,
          "internalType": "address",
          "name": "contractor",
          "type": "address"
        },
        {
          "indexed": false,
          "internalType": "uint256",
          "name": "budget",
          "type": "uint256"
        }
      ],
      "name": "ProjectCreated",
      "type": "event"
    },
    {
      "inputs": [
        {
          "internalType": "address",
          "name": "_contractor",
          "type": "address"
        },
        {
          "internalType": "uint256[]",
          "name": "_milestoneAmounts",
          "type": "uint256[]"
        },
        {
          "internalType": "string[]",
          "name": "_milestoneDescriptions",
          "type": "string[]"
        }
      ],
      "name": "createProject",
      "outputs": [
        {
          "internalType": "uint256",
          "name": "",
          "type": "uint256"
        }
      ],
      "stateMutability": "payable",
      "type": "function"
    },
    {
      "inputs": [],
      "name": "nextProjectId",
      "outputs": [
        {
          "internalType": "uint256",
          "name": "",
          "type": "uint256"
        }
      ],
      "stateMutability": "view",
      "type": "function"
    },
    {
      "inputs": [],
      "name": "oracleAddress",
      "outputs": [
        {
          "internalType": "address",
          "name": "",
          "type": "address"
        }
      ],
      "stateMutability": "view",
      "type": "function"
    },
    {
      "inputs": [
        {
          "internalType": "uint256",
          "name": "",
          "type": "uint256"
        }
      ],
      "name": "projects",
      "outputs": [
        {
          "internalType": "address",
          "name": "funder",
          "type": "address"
        },
        {
          "internalType": "address",
          "name": "contractor",
          "type": "address"
        },
        {
          "internalType": "uint256",
          "name": "totalBudget",
          "type": "uint256"
        },
        {
          "internalType": "uint256",
          "name": "fundsReleased",
          "type": "uint256"
        },
        {
          "internalType": "uint256",
          "name": "milestoneCount",
          "type": "uint256"
        }
      ],
      "stateMutability": "view",
      "type": "function"
    },
    {
      "inputs": [
        {
          "internalType": "uint256",
          "name": "_projectId",
          "type": "uint256"
        },
        {
          "internalType": "uint256",
          "name": "_milestoneIndex",
          "type": "uint256"
        },
        {
          "internalType": "bool",
          "name": "_verdict",
          "type": "bool"
        }
      ],
      "name": "releaseMilestone",
      "outputs": [],
      "stateMutability": "nonpayable",
      "type": "function"
    },
    {
      "inputs": [
        {
          "internalType": "uint256",
          "name": "_projectId",
          "type": "uint256"
        },
        {
          "internalType": "uint256",
          "name": "_milestoneIndex",
          "type": "uint256"
        },
        {
          "internalType": "string",
          "name": "_ipfsHash",
          "type": "string"
        }
      ],
      "name": "submitEvidence",
      "outputs": [],
      "stateMutability": "nonpayable",
      "type": "function"
    },
    {
      "stateMutability": "payable",
      "type": "receive"
    }
  ],
  "transactionHash": "0x12e3b0a64f9aeaf7c01163cdfca7720f81cf0d90162969805900a706237539bb",
  "args": [
    "0x148ba9e6f4600094f3a680b935116dff42901212"
  ],
  "numDeployments": 3,
  "solcInputHash": "93fd4ea24eb833a2395ef1d0e28c5c56",
  "bytecode": "0x60a060405234801561001057600080fd5b50604051610cb0380380610cb083398101604081905261002f91610040565b6001600160a01b0316608052610070565b60006020828403121561005257600080fd5b81516001600160a01b038116811461006957600080fd5b9392505050565b608051610c1e6100926000396000818161016901526101c40152610c1e6000f3fe6080604052600436106100595760003560e01c8063107046bd1461006557806331708235146100f45780635bb6b421146101165780638b69fa0a14610137578063a89ae4ba14610157578063e935b7b1146101a357600080fd5b3661006057005b600080fd5b34801561007157600080fd5b506100bc610080366004610712565b6001602081905260009182526040909120805491810154600282015460038301546004909301546001600160a01b039485169490921692909185565b604080516001600160a01b039687168152959094166020860152928401919091526060830152608082015260a0015b60405180910390f35b34801561010057600080fd5b5061011461010f36600461072b565b6101b9565b005b6101296101243660046108d4565b6103a0565b6040519081526020016100eb565b34801561014357600080fd5b506101146101523660046109ad565b6105d9565b34801561016357600080fd5b5061018b7f000000000000000000000000000000000000000000000000000000000000000081565b6040516001600160a01b0390911681526020016100eb565b3480156101af57600080fd5b5061012960005481565b336001600160a01b037f000000000000000000000000000000000000000000000000000000000000000016146102095760405163472511eb60e11b81523360048201526024015b60405180910390fd5b600083815260016020526040812060058101805491929185908110610230576102306109f3565b906000526020600020906004020190508160040154841061026e57604051630b0d89bb60e01b81526004810186905260248101859052604401610200565b600281015460ff16156102945760405163195332a560e01b815260040160405180910390fd5b60028101805460ff1916600190811790915583151590036103995760028101805461ff00191661010017905560018101546003830180546000906102d9908490610a1f565b9091555050600182810154908201546040516000926001600160a01b031691908381818185875af1925050503d8060008114610331576040519150601f19603f3d011682016040523d82523d6000602084013e610336565b606091505b5050905080610358576040516312171d8360e31b815260040160405180910390fd5b84867fd33fcd27cbfb73a2d9058c968b560ccb306500bf536133802048489ecc7355e9846001015460405161038f91815260200190565b60405180910390a3505b5050505050565b600081518351146103c45760405163251f56a160e21b815260040160405180910390fd5b6000805b845181101561040a578481815181106103e3576103e36109f3565b6020026020010151826103f69190610a1f565b91508061040281610a38565b9150506103c8565b5080341461042b5760405163162908e360e11b815260040160405180910390fd5b60008054815260016020819052604082208054336001600160a01b031991821617825591810180549092166001600160a01b038916179091556002810183905585516004820155905b855181101561057557816005016040518060a0016040528087848151811061049e5761049e6109f3565b602002602001015181526020018884815181106104bd576104bd6109f3565b60209081029190910181015182526000828201819052604080840182905280518084019091528181526060909301929092528354600181018555938252902081519192600402019081906105119082610ada565b50602082015160018201556040820151600282018054606085015115156101000261ff00199315159390931661ffff19909116179190911790556080820151600382019061055f9082610ada565b505050808061056d90610a38565b915050610474565b50856001600160a01b03166000547f1b9d0946c0a6f3b3a57782ad25a4553bd5bcf1f1a252068eafc757670aad573a846040516105b491815260200190565b60405180910390a36000805490806105cb83610a38565b909155509695505050505050565b6000838152600160208190526040909120908101546001600160a01b0316331461062757600181015460405163e96b27a360e01b81526001600160a01b039091166004820152602401610200565b8060040154831061065557604051630b0d89bb60e01b81526004810185905260248101849052604401610200565b80600501838154811061066a5761066a6109f3565b600091825260209091206002600490920201015460ff161561069f5760405163195332a560e01b815260040160405180910390fd5b818160050184815481106106b5576106b56109f3565b906000526020600020906004020160030190816106d29190610ada565b5082847fd998ce0f89c38b0f93256f0b843a404a3a3c5055b75265623f7cb9c369a1dd62846040516107049190610b9a565b60405180910390a350505050565b60006020828403121561072457600080fd5b5035919050565b60008060006060848603121561074057600080fd5b83359250602084013591506040840135801515811461075e57600080fd5b809150509250925092565b634e487b7160e01b600052604160045260246000fd5b604051601f8201601f1916810167ffffffffffffffff811182821017156107a8576107a8610769565b604052919050565b600067ffffffffffffffff8211156107ca576107ca610769565b5060051b60200190565b600082601f8301126107e557600080fd5b813567ffffffffffffffff8111156107ff576107ff610769565b610812601f8201601f191660200161077f565b81815284602083860101111561082757600080fd5b816020850160208301376000918101602001919091529392505050565b600082601f83011261085557600080fd5b8135602061086a610865836107b0565b61077f565b82815260059290921b8401810191818101908684111561088957600080fd5b8286015b848110156108c957803567ffffffffffffffff8111156108ad5760008081fd5b6108bb8986838b01016107d4565b84525091830191830161088d565b509695505050505050565b6000806000606084860312156108e957600080fd5b83356001600160a01b038116811461090057600080fd5b925060208481013567ffffffffffffffff8082111561091e57600080fd5b818701915087601f83011261093257600080fd5b8135610940610865826107b0565b81815260059190911b8301840190848101908a83111561095f57600080fd5b938501935b8285101561097d57843582529385019390850190610964565b96505050604087013592508083111561099557600080fd5b50506109a386828701610844565b9150509250925092565b6000806000606084860312156109c257600080fd5b8335925060208401359150604084013567ffffffffffffffff8111156109e757600080fd5b6109a3868287016107d4565b634e487b7160e01b600052603260045260246000fd5b634e487b7160e01b600052601160045260246000fd5b80820180821115610a3257610a32610a09565b92915050565b600060018201610a4a57610a4a610a09565b5060010190565b600181811c90821680610a6557607f821691505b602082108103610a8557634e487b7160e01b600052602260045260246000fd5b50919050565b601f821115610ad557600081815260208120601f850160051c81016020861015610ab25750805b601f850160051c820191505b81811015610ad157828155600101610abe565b5050505b505050565b815167ffffffffffffffff811115610af457610af4610769565b610b0881610b028454610a51565b84610a8b565b602080601f831160018114610b3d5760008415610b255750858301515b600019600386901b1c1916600185901b178555610ad1565b600085815260208120601f198616915b82811015610b6c57888601518255948401946001909101908401610b4d565b5085821015610b8a5787850151600019600388901b60f8161c191681555b5050505050600190811b01905550565b600060208083528351808285015260005b81811015610bc757858101830151858201604001528201610bab565b506000604082860101526040601f19601f830116850101925050509291505056fea26469706673582212208d10b5b05f446cc27ba4a1a2ee7e11bb690472121b76641a934277ddd9b73e9d64736f6c63430008140033",
  "devdoc": {
    "kind": "dev",
    "methods": {},
    "version": 1
  },
  "userdoc": {
    "kind": "user",
    "methods": {},
    "version": 1
  },
  "storageLayout": {
    "storage": [
      {
        "astId": 53,
        "contract": "contracts/OpticGov.sol:OpticGov",
        "label": "nextProjectId",
        "offset": 0,
        "slot": "0",
        "type": "t_uint256"
      },
      {
        "astId": 58,
        "contract": "contracts/OpticGov.sol:OpticGov",
        "label": "projects",
        "offset": 0,
        "slot": "1",
        "type": "t_mapping(t_uint256,t_struct(Project)51_storage)"
      }
    ],
    "types": {
      "t_address": {
        "encoding": "inplace",
        "label": "address",
        "numberOfBytes": "20"
      },
      "t_array(t_struct(Milestone)36_storage)dyn_storage": {
        "base": "t_struct(Milestone)36_storage",
        "encoding": "dynamic_array",
        "label": "struct OpticGov.Milestone[]",
        "numberOfBytes": "32"
      },
      "t_bool": {
        "encoding": "inplace",
        "label": "bool",
        "numberOfBytes": "1"
      },
      "t_mapping(t_uint256,t_struct(Project)51_storage)": {
        "encoding": "mapping",
        "key": "t_uint256",
        "label": "mapping(uint256 => struct OpticGov.Project)",
        "numberOfBytes": "32",
        "value": "t_struct(Project)51_storage"
      },
      "t_string_storage": {
        "encoding": "bytes",
        "label": "string",
        "numberOfBytes": "32"
      },
      "t_struct(Milestone)36_storage": {
        "encoding": "inplace",
        "label": "struct OpticGov.Milestone",
        "members": [
          {
            "astId": 27,
            "contract": "contracts/OpticGov.sol:OpticGov",
            "label": "description",
            "offset": 0,
            "slot": "0",
            "type": "t_string_storage"
          },
          {
            "astId": 29,
            "contract": "contracts/OpticGov.sol:OpticGov",
            "label": "amount",
            "offset": 0,
            "slot": "1",
            "type": "t_uint256"
          },
          {
            "astId": 31,
            "contract": "contracts/OpticGov.sol:OpticGov",
            "label": "isCompleted",
            "offset": 0,
            "slot": "2",
            "type": "t_bool"
          },
          {
            "astId": 33,
            "contract": "contracts/OpticGov.sol:OpticGov",
            "label": "isReleased",
            "offset": 1,
            "slot": "2",
            "type": "t_bool"
          },
          {
            "astId": 35,
            "contract": "contracts/OpticGov.sol:OpticGov",
            "label": "evidenceIpfsHash",
            "offset": 0,
            "slot": "3",
            "type": "t_string_storage"
          }
        ],
        "numberOfBytes": "128"
      },
      "t_struct(Project)51_storage": {
        "encoding": "inplace",
        "label": "struct OpticGov.Project",
        "members": [
          {
            "astId": 38,
            "contract": "contracts/OpticGov.sol:OpticGov",
            "label": "funder",
            "offset": 0,
            "slot": "0",
            "type": "t_address"
          },
          {
            "astId": 40,
            "contract": "contracts/OpticGov.sol:OpticGov",
            "label": "contractor",
            "offset": 0,
            "slot": "1",
            "type": "t_address"
          },
          {
            "astId": 42,
            "contract": "contracts/OpticGov.sol:OpticGov",
            "label": "totalBudget",
            "offset": 0,
            "slot": "2",
            "type": "t_uint256"
          },
          {
            "astId": 44,
            "contract": "contracts/OpticGov.sol:OpticGov",
            "label": "fundsReleased",
            "offset": 0,
            "slot": "3",
            "type": "t_uint256"
          },
          {
            "astId": 46,
            "contract": "contracts/OpticGov.sol:OpticGov",
            "label": "milestoneCount",
            "offset": 0,
            "slot": "4",
            "type": "t_uint256"
          },
          {
            "astId": 50,
            "contract": "contracts/OpticGov.sol:OpticGov",
            "label": "milestones",
            "offset": 0,
            "slot": "5",
            "type": "t_array(t_struct(Milestone)36_storage)dyn_storage"
          }
        ],
        "numberOfBytes": "192"
      },
      "t_uint256": {
        "encoding": "inplace",
        "label": "uint256",
        "numberOfBytes": "32"
      }
    }
  }
}