{
  "address": "0x25b4C5e58BdF3124095aD925fd480eD5D17e9e64",
  "abi": [
    {
      "inputs": [
        {
          "internalType": "address",
          "name": "_oracleAddress",
          "type": "address"
        }
      ],
      "stateMutability": "nonpayable",
      "type": "constructor"
    },
    {
      "inputs": [],
      "name": "AlreadyCompleted",
      "type": "error"
    },
    {
      "inputs": [],
      "name": "InvalidAmount",
      "type": "error"
    },
    {
      "inputs": [],
      "name": "InvalidLength",
      "type": "error"
    },
    {
      "inputs": [
        {
          "internalType": "uint256",
          "name": "projectId",
          "type": "uint256"
        },
        {
          "internalType": "uint256",
          "name": "milestoneIndex",
          "type": "uint256"
        }
      ],
      "name": "InvalidMilestone",
      "type": "error"
    },
    {
      "inputs": [
        {
          "internalType": "address",
          "name": "contractor",
          "type": "address"
        }
      ],
      "name": "OnlyContractor",
      "type": "error"
    },
    {
      "inputs": [],
      "name": "ProjectDoesNotExist",
      "type": "error"
    },
    {
      "inputs": [],
      "name": "TransferFailed",
      "type": "error"
    },
    {
      "inputs": [
        {
          "internalType": "address",
          "name": "caller",
          "type": "address"
        }
      ],
      "name": "Unauthorized",
      "type": "error"
    },
    {
      "anonymous": false,
      "inputs": [
        {
          "indexed": true,
          "internalType": "uint256",
          "name": "projectId",
          "type": "uint256"
        },
        {
          "indexed": true,
          "internalType": "uint256",
          "name": "milestoneIndex",
          "type": "uint256"
        },
        {
          "indexed": false,
          "internalType": "string",
          "name": "ipfsHash",
          "type": "string"
        }
      ],
      "name": "EvidenceSubmitted",
      "type": "event"
    },
    {
      "anonymous": false,
      "inputs": [
        {
          "indexed": true,
          "internalType": "uint256",
          "name": "projectId",
          "type": "uint256"
        },
        {
          "indexed": true,
          "internalType": "uint256",
          "name": "milestoneIndex",
          "type": "uint256"
        },
        {
          "indexed": false,
          "internalType": "uint256",
          "name": "amount",
          "type": "uint256"
        }
      ],
      "name": "MilestoneReleased",
      "type": "event"
    },
    {
      "anonymous": false,
      "inputs": [
        {
          "indexed": true,
          "internalType": "uint256",
          "name": "projectId",
          "type": "uint256"
        },
        {
          "indexed": true,
          "internalType": "address",
          "name": "funder",
          "type": "address"
        },
        {
          "indexed": true,
          "internalType": "address",
          "name": "contractor",
          "type": "address"
        },
        {
          "indexed": false,
          "internalType": "uint256",
          "name": "budget",
          "type": "uint256"
        }
      ],
      "name": "ProjectCreated",
      "type": "event"
    },
    {
      "inputs": [
        {
          "internalType": "address",
          "name": "_contractor",
          "type": "address"
        },
        {
          "internalType": "uint256[]",
          "name": "_milestoneAmounts",
          "type": "uint256[]"
        },
        {
          "internalType": "string[]",
          "name": "_milestoneDescriptions",
          "type": "string[]"
        }
      ],
      "name": "createProject",
      "outputs": [
        {
          "internalType": "uint256",
          "name": "",
          "type": "uint256"
        }
      ],
      "stateMutability": "payable",
      "type": "function"
    },
    {
      "inputs": [
        {
          "internalType": "uint256",
          "name": "_projectId",
          "type": "uint256"
        },
        {
          "internalType": "uint256",
          "name": "_index",
          "type": "uint256"
        }
      ],
      "name": "getMilestone",
      "outputs": [
        {
          "components": [
            {
              "internalType": "string",
              "name": "description",
              "type": "string"
            },
            {
              "internalType": "uint256",
              "name": "amount",
              "type": "uint256"
            },
            {
              "internalType": "bool",
              "name": "isCompleted",
              "type": "bool"
            },
            {
              "internalType": "bool",
              "name": "isReleased",
              "type": "bool"
            },
            {
              "internalType": "string",
              "name": "evidenceIpfsHash",
              "type": "string"
            }
          ],
          "internalType": "struct OpticGov.Milestone",
          "name": "",
          "type": "tuple"
        }
      ],
      "stateMutability": "view",
      "type": "function"
    },
    {
      "inputs": [],
      "name": "nextProjectId",
      "outputs": [
        {
          "internalType": "uint256",
          "name": "",
          "type": "uint256"
        }
      ],
      "stateMutability": "view",
      "type": "function"
    },
    {
      "inputs": [],
      "name": "oracleAddress",
      "outputs": [
        {
          "internalType": "address",
          "name": "",
          "type": "address"
        }
      ],
      "stateMutability": "view",
      "type": "function"
    },
    {
      "inputs": [
        {
          "internalType": "uint256",
          "name": "",
          "type": "uint256"
        }
      ],
      "name": "projects",
      "outputs": [
        {
          "internalType": "address",
          "name": "funder",
          "type": "address"
        },
        {
          "internalType": "address",
          "name": "contractor",
          "type": "address"
        },
        {
          "internalType": "uint256",
          "name": "totalBudget",
          "type": "uint256"
        },
        {
          "internalType": "uint256",
          "name": "fundsReleased",
          "type": "uint256"
        },
        {
          "internalType": "uint256",
          "name": "milestoneCount",
          "type": "uint256"
        }
      ],
      "stateMutability": "view",
      "type": "function"
    },
    {
      "inputs": [
        {
          "internalType": "uint256",
          "name": "_projectId",
          "type": "uint256"
        },
        {
          "internalType": "uint256",
          "name": "_milestoneIndex",
          "type": "uint256"
        },
        {
          "internalType": "bool",
          "name": "_verdict",
          "type": "bool"
        }
      ],
      "name": "releaseMilestone",
      "outputs": [],
      "stateMutability": "nonpayable",
      "type": "function"
    },
    {
      "inputs": [
        {
          "internalType": "uint256",
          "name": "_projectId",
          "type": "uint256"
        },
        {
          "internalType": "uint256",
          "name": "_milestoneIndex",
          "type": "uint256"
        },
        {
          "internalType": "string",
          "name": "_ipfsHash",
          "type": "string"
        }
      ],
      "name": "submitEvidence",
      "outputs": [],
      "stateMutability": "nonpayable",
      "type": "function"
    },
    {
      "stateMutability": "payable",
      "type": "receive"
    }
  ],
  "transactionHash": "0x60686d1ab96d85a7f5f6afa8ce82aff35d012b6b030c5ffa749bbdc6e69e599b",
  "args": [
    "0x9b7BAA27877535Ef58ffb0870C3D4d01A54CCC13"
  ],
  "numDeployments": 1,
  "solcInputHash": "d53a271ede4fc0c903399548554e06f8",
  "bytecode": "0x60a060405234801561001057600080fd5b50604051610fe4380380610fe483398101604081905261002f9161006e565b6001600160a01b03811661005d5760405163472511eb60e11b81526000600482015260240160405180910390fd5b6001600160a01b031660805261009e565b60006020828403121561008057600080fd5b81516001600160a01b038116811461009757600080fd5b9392505050565b608051610f246100c0600039600081816101b1015261020c0152610f246000f3fe6080604052600436106100745760003560e01c80638b69fa0a1161004e5780638b69fa0a146101525780638ed9895c14610172578063a89ae4ba1461019f578063e935b7b1146101eb57600080fd5b8063107046bd14610080578063317082351461010f5780635bb6b4211461013157600080fd5b3661007b57005b600080fd5b34801561008c57600080fd5b506100d761009b366004610983565b6001602081905260009182526040909120805491810154600282015460038301546004909301546001600160a01b039485169490921692909185565b604080516001600160a01b039687168152959094166020860152928401919091526060830152608082015260a0015b60405180910390f35b34801561011b57600080fd5b5061012f61012a36600461099c565b610201565b005b61014461013f366004610a26565b6103e3565b604051908152602001610106565b34801561015e57600080fd5b5061012f61016d366004610ab5565b610682565b34801561017e57600080fd5b5061019261018d366004610b35565b6107b7565b6040516101069190610b9d565b3480156101ab57600080fd5b506101d37f000000000000000000000000000000000000000000000000000000000000000081565b6040516001600160a01b039091168152602001610106565b3480156101f757600080fd5b5061014460005481565b336001600160a01b037f000000000000000000000000000000000000000000000000000000000000000016146102515760405163472511eb60e11b81523360048201526024015b60405180910390fd5b60008381526001602052604090206004810154831061028d57604051630b0d89bb60e01b81526004810185905260248101849052604401610248565b60008160050184815481106102a4576102a4610c01565b60009182526020909120600490910201600281015490915060ff16156102dd5760405163195332a560e01b815260040160405180910390fd5b60028101805460ff1916600117905582156103dc5760028101805461ff001916610100179055600181015460038301805460009061031c908490610c2d565b9091555050600182810154908201546040516000926001600160a01b031691908381818185875af1925050503d8060008114610374576040519150601f19603f3d011682016040523d82523d6000602084013e610379565b606091505b505090508061039b576040516312171d8360e31b815260040160405180910390fd5b84867fd33fcd27cbfb73a2d9058c968b560ccb306500bf536133802048489ecc7355e984600101546040516103d291815260200190565b60405180910390a3505b5050505050565b60008382146104055760405163251f56a160e21b815260040160405180910390fd5b60008490036104275760405163251f56a160e21b815260040160405180910390fd5b6000805b8581101561046b5786868281811061044557610445610c01565b90506020020135826104579190610c2d565b91508061046381610c40565b91505061042b565b5080341461048c5760405163162908e360e11b815260040160405180910390fd5b60008054818061049b83610c40565b90915550600081815260016020819052604082208054336001600160a01b031991821617825591810180549092166001600160a01b038d161790915560028101859055600481018990559192505b8781101561062757816005016040518060a0016040528089898581811061051257610512610c01565b90506020028101906105249190610c59565b8080601f0160208091040260200160405190810160405280939291908181526020018383808284376000920191909152505050908252506020018b8b8581811061057057610570610c01565b602090810292909201358352506000828201819052604080840182905280518084019091528181526060909301929092528354600181018555938252902081519192600402019081906105c39082610d3f565b50602082015160018201556040820151600282018054606085015115156101000261ff00199315159390931661ffff1990911617919091179055608082015160038201906106119082610d3f565b505050808061061f90610c40565b9150506104e9565b50886001600160a01b0316336001600160a01b0316837ff03bc2e49a83d942284cb30e1c2935d4b542e1e1e6456d28b5365ddb110a52a28660405161066e91815260200190565b60405180910390a450979650505050505050565b600084815260016020526040902080546001600160a01b03166106b8576040516338fde52b60e01b815260040160405180910390fd5b60018101546001600160a01b031633146106f657600181015460405163e96b27a360e01b81526001600160a01b039091166004820152602401610248565b8060040154841061072457604051630b0d89bb60e01b81526004810186905260248101859052604401610248565b600081600501858154811061073b5761073b610c01565b60009182526020909120600490910201600281015490915060ff16156107745760405163195332a560e01b815260040160405180910390fd5b60038101610783848683610dff565b5084867fd998ce0f89c38b0f93256f0b843a404a3a3c5055b75265623f7cb9c369a1dd6286866040516103d2929190610ebf565b6107ed6040518060a001604052806060815260200160008152602001600015158152602001600015158152602001606081525090565b600083815260016020526040902060050180548390811061081057610810610c01565b90600052602060002090600402016040518060a001604052908160008201805461083990610cb6565b80601f016020809104026020016040519081016040528092919081815260200182805461086590610cb6565b80156108b25780601f10610887576101008083540402835291602001916108b2565b820191906000526020600020905b81548152906001019060200180831161089557829003601f168201915b505050918352505060018201546020820152600282015460ff8082161515604084015261010090910416151560608201526003820180546080909201916108f890610cb6565b80601f016020809104026020016040519081016040528092919081815260200182805461092490610cb6565b80156109715780601f1061094657610100808354040283529160200191610971565b820191906000526020600020905b81548152906001019060200180831161095457829003601f168201915b50505050508152505090505b92915050565b60006020828403121561099557600080fd5b5035919050565b6000806000606084860312156109b157600080fd5b8335925060208401359150604084013580151581146109cf57600080fd5b809150509250925092565b60008083601f8401126109ec57600080fd5b50813567ffffffffffffffff811115610a0457600080fd5b6020830191508360208260051b8501011115610a1f57600080fd5b9250929050565b600080600080600060608688031215610a3e57600080fd5b85356001600160a01b0381168114610a5557600080fd5b9450602086013567ffffffffffffffff80821115610a7257600080fd5b610a7e89838a016109da565b90965094506040880135915080821115610a9757600080fd5b50610aa4888289016109da565b969995985093965092949392505050565b60008060008060608587031215610acb57600080fd5b8435935060208501359250604085013567ffffffffffffffff80821115610af157600080fd5b818701915087601f830112610b0557600080fd5b813581811115610b1457600080fd5b886020828501011115610b2657600080fd5b95989497505060200194505050565b60008060408385031215610b4857600080fd5b50508035926020909101359150565b6000815180845260005b81811015610b7d57602081850181015186830182015201610b61565b506000602082860101526020601f19601f83011685010191505092915050565b602081526000825160a06020840152610bb960c0840182610b57565b9050602084015160408401526040840151151560608401526060840151151560808401526080840151601f198483030160a0850152610bf88282610b57565b95945050505050565b634e487b7160e01b600052603260045260246000fd5b634e487b7160e01b600052601160045260246000fd5b8082018082111561097d5761097d610c17565b600060018201610c5257610c52610c17565b5060010190565b6000808335601e19843603018112610c7057600080fd5b83018035915067ffffffffffffffff821115610c8b57600080fd5b602001915036819003821315610a1f57600080fd5b634e487b7160e01b600052604160045260246000fd5b600181811c90821680610cca57607f821691505b602082108103610cea57634e487b7160e01b600052602260045260246000fd5b50919050565b601f821115610d3a57600081815260208120601f850160051c81016020861015610d175750805b601f850160051c820191505b81811015610d3657828155600101610d23565b5050505b505050565b815167ffffffffffffffff811115610d5957610d59610ca0565b610d6d81610d678454610cb6565b84610cf0565b602080601f831160018114610da25760008415610d8a5750858301515b600019600386901b1c1916600185901b178555610d36565b600085815260208120601f198616915b82811015610dd157888601518255948401946001909101908401610db2565b5085821015610def5787850151600019600388901b60f8161c191681555b5050505050600190811b01905550565b67ffffffffffffffff831115610e1757610e17610ca0565b610e2b83610e258354610cb6565b83610cf0565b6000601f841160018114610e5f5760008515610e475750838201355b600019600387901b1c1916600186901b1783556103dc565b600083815260209020601f19861690835b82811015610e905786850135825560209485019460019092019101610e70565b5086821015610ead5760001960f88860031b161c19848701351681555b505060018560011b0183555050505050565b60208152816020820152818360408301376000818301604090810191909152601f909201601f1916010191905056fea264697066735822122092f8e43a227e29030bb30ad75a5efe59fb5da97fc056718efb50cd8b2bafabe064736f6c63430008140033",
  "devdoc": {
    "details": "Transparency-focused project management and funding contract.",
    "kind": "dev",
    "methods": {
      "createProject(address,uint256[],string[])": {
        "params": {
          "_contractor": "The wallet address of the worker/contractor.",
          "_milestoneAmounts": "Array of costs for each milestone.",
          "_milestoneDescriptions": "Array of text descriptions for each milestone."
        }
      }
    },
    "title": "OpticGov",
    "version": 1
  },
  "userdoc": {
    "kind": "user",
    "methods": {
      "createProject(address,uint256[],string[])": {
        "notice": "Creates a new project with set milestones."
      }
    },
    "version": 1
  },
  "storageLayout": {
    "storage": [
      {
        "astId": 30,
        "contract": "contracts/OpticGov.sol:OpticGov",
        "label": "nextProjectId",
        "offset": 0,
        "slot": "0",
        "type": "t_uint256"
      },
      {
        "astId": 61,
        "contract": "contracts/OpticGov.sol:OpticGov",
        "label": "projects",
        "offset": 0,
        "slot": "1",
        "type": "t_mapping(t_uint256,t_struct(Project)56_storage)"
      }
    ],
    "types": {
      "t_address": {
        "encoding": "inplace",
        "label": "address",
        "numberOfBytes": "20"
      },
      "t_array(t_struct(Milestone)41_storage)dyn_storage": {
        "base": "t_struct(Milestone)41_storage",
        "encoding": "dynamic_array",
        "label": "struct OpticGov.Milestone[]",
        "numberOfBytes": "32"
      },
      "t_bool": {
        "encoding": "inplace",
        "label": "bool",
        "numberOfBytes": "1"
      },
      "t_mapping(t_uint256,t_struct(Project)56_storage)": {
        "encoding": "mapping",
        "key": "t_uint256",
        "label": "mapping(uint256 => struct OpticGov.Project)",
        "numberOfBytes": "32",
        "value": "t_struct(Project)56_storage"
      },
      "t_string_storage": {
        "encoding": "bytes",
        "label": "string",
        "numberOfBytes": "32"
      },
      "t_struct(Milestone)41_storage": {
        "encoding": "inplace",
        "label": "struct OpticGov.Milestone",
        "members": [
          {
            "astId": 32,
            "contract": "contracts/OpticGov.sol:OpticGov",
            "label": "description",
            "offset": 0,
            "slot": "0",
            "type": "t_string_storage"
          },
          {
            "astId": 34,
            "contract": "contracts/OpticGov.sol:OpticGov",
            "label": "amount",
            "offset": 0,
            "slot": "1",
            "type": "t_uint256"
          },
          {
            "astId": 36,
            "contract": "contracts/OpticGov.sol:OpticGov",
            "label": "isCompleted",
            "offset": 0,
            "slot": "2",
            "type": "t_bool"
          },
          {
            "astId": 38,
            "contract": "contracts/OpticGov.sol:OpticGov",
            "label": "isReleased",
            "offset": 1,
            "slot": "2",
            "type": "t_bool"
          },
          {
            "astId": 40,
            "contract": "contracts/OpticGov.sol:OpticGov",
            "label": "evidenceIpfsHash",
            "offset": 0,
            "slot": "3",
            "type": "t_string_storage"
          }
        ],
        "numberOfBytes": "128"
      },
      "t_struct(Project)56_storage": {
        "encoding": "inplace",
        "label": "struct OpticGov.Project",
        "members": [
          {
            "astId": 43,
            "contract": "contracts/OpticGov.sol:OpticGov",
            "label": "funder",
            "offset": 0,
            "slot": "0",
            "type": "t_address"
          },
          {
            "astId": 45,
            "contract": "contracts/OpticGov.sol:OpticGov",
            "label": "contractor",
            "offset": 0,
            "slot": "1",
            "type": "t_address"
          },
          {
            "astId": 47,
            "contract": "contracts/OpticGov.sol:OpticGov",
            "label": "totalBudget",
            "offset": 0,
            "slot": "2",
            "type": "t_uint256"
          },
          {
            "astId": 49,
            "contract": "contracts/OpticGov.sol:OpticGov",
            "label": "fundsReleased",
            "offset": 0,
            "slot": "3",
            "type": "t_uint256"
          },
          {
            "astId": 51,
            "contract": "contracts/OpticGov.sol:OpticGov",
            "label": "milestoneCount",
            "offset": 0,
            "slot": "4",
            "type": "t_uint256"
          },
          {
            "astId": 55,
            "contract": "contracts/OpticGov.sol:OpticGov",
            "label": "milestones",
            "offset": 0,
            "slot": "5",
            "type": "t_array(t_struct(Milestone)41_storage)dyn_storage"
          }
        ],
        "numberOfBytes": "192"
      },
      "t_uint256": {
        "encoding": "inplace",
        "label": "uint256",
        "numberOfBytes": "32"
      }
    }
  }
}